:100000000C9474000C9495000C9495000C9495003D
:100010000C9495000C9495000C9495000C9495000C
:100020000C9495000C9495000C9495000C949500FC
:100030000C9495000C9495000C9495000C949500EC
:100040000C9495000C9495000C9495000C949500DC
:100050000C9495000C9495000C9495000C949500CC
:100060000C9495000C9495000C9495000C949500BC
:100070000C9495000C9495000C9495000C949500AC
:100080000C9495000C9495000C9495000C9495009C
:100090000C9495000C9495000C9495000C9495008C
:1000A0000C9495000C9495000C9495000C9495007C
:1000B0000C9495000C9495000C9495000C9495006C
:1000C0000C9495000C9495000C9495000C9495005C
:1000D0000C9495000C9495000C9495000C9495004C
:1000E0000C9495000C94970011241FBECFEFD1E221
:1000F000DEBFCDBF00E00CBF12E0A0E0B2E0E0E365
:10010000F2E000E00BBF02C007900D92AA34B107E5
:10011000D9F722E0AAE4B2E001C01D92A035B207EF
:10012000E1F70E94C1000C9416010C940000CF93DB
:10013000C82F8A3019F48DE00E9497008091C0008A
:1001400085FFFCCFC093C60080E090E0CF9108957A
:10015000E1ECF0E010821092C50080E18093C400D1
:10016000A0ECB0E08C9182608C9386E08093C2001A
:1001700088E1808380E092E090934D0280934C026E
:100180000895279A0E94A8008EE092E00E94E6005F
:1001900088E292E00E94E60085B1805885B92FEF91
:1001A00081EE94E0215080409040E1F700C00000D3
:1001B0008DE292E00E94E6002FEF81EE94E0215064
:1001C00080409040E1F700C00000E2CF0F931F9302
:1001D000CF93DF93E0914C02F0914D02238121FFF8
:1001E0001BC08C01D0E0C0E0F80181918F016091CB
:1001F0004C0270914D02DB011896ED91FC9119971C
:10020000882331F01995892B79F3DFEFCFEFECCF0D
:100210008AE01995892B19F08FEF9FEF02C08D2F7F
:100220009C2FDF91CF911F910F910895F894FFCFEC
:10023000000000020000000097000000000055418F
:100240005254204578616D706C653A2048656C6C3D
:100250006F2C204156522100432121210057652750
:100260007265206C6F6F70696E672E2E2E2077611D
:0A027000697420313030306D7300E6
:00000001FF
